:100000000C942F070C944C070C944C070C944C0741
:100010000C944C070C944C070C944C070C944C0714
:100020000C944C070C944C070C944C070C944C0704
:100030000C944C070C944C070C944C070C944C07F4
:100040000C944C070C944C070C944C070C944C07E4
:100050000C944C070C944C070C944C070C944C07D4
:100060000C944C070C944C070000000000000000AA
:1000700000007C00DA00F200DA007C007C00D60090
:10008000F200D6007C0038007C003E007C00380086
:1000900018003C007E003C0018003800EA00BE005A
:1000A000EA00380038007A00FE007A0038000000CC
:1000B00018003C0018000000FF00E700C300E70044
:1000C000FF0000001800240018000000FF00E700F7
:1000D000DB00E700FF000C0012005C006000700015
:1000E000640094009E00940064000200FE00A000E2
:1000F000A000E0000200FE00A000A400FC005A00E6
:100100003C00E7003C005A00FE007C00380038004C
:1001100010001000380038007C00FE002800440069
:10012000FE0044002800FA00FA000000FA00FA007D
:1001300060009000FE008000FE000000660091005C
:10014000A900560006000600060006000600290069
:100150004500FF0045002900100020007E0020001F
:100160001000080004007E000400080010001000C9
:100170005400380010001000380054001000100027
:1001800078000800080008000800300078003000FF
:10019000780030000C001C007C001C000C0060008B
:1001A00070007C0070006000000000000000000093
:1001B000000000000000FA00000000000000E00065
:1001C0000000E00000002800FE002800FE002800DB
:1001D00024005400FE0054004800C400C800100071
:1001E000260046006C0092006A0004000A0000002D
:1001F0001000E000C0000000000038004400820051
:100200000000000082004400380000005400380064
:10021000FE0038005400100010007C001000100098
:10022000000001000E000C00000010001000100083
:10023000100010000000000006000600000004008E
:1002400008001000200040007C008A009200A200FC
:100250007C0000004200FE00020000004E00920000
:10026000920092006200840082009200B200CC00F2
:10027000180028004800FE000800E400A200A200C8
:10028000A2009C003C005200920092008C00820070
:10029000840088009000E0006C00920092009200C0
:1002A0006C00620092009200940078000000000050
:1002B000280000000000000002002C0000000000E8
:1002C00000001000280044008200280028002800B8
:1002D0002800280000008200440028001000400090
:1002E00080009A00900060007C008200BA009A00B2
:1002F00072003E004800880048003E00FE00920068
:10030000920092006C007C00820082008200440017
:10031000FE008200820082007C00FE0092009200BB
:1003200092008200FE0090009000900080007C000F
:10033000820082008A00CE00FE0010001000100033
:10034000FE0000008200FE008200000004000200A7
:100350008200FC008000FE001000280044008200A3
:10036000FE000200020002000200FE004000380011
:100370004000FE00FE00200010000800FE007C008F
:100380008200820082007C00FE00900090009000BD
:1003900060007C0082008A0084007A00FE009000E9
:1003A00098009400620064009200920092004C0059
:1003B000C0008000FE008000C000FC0002000200BF
:1003C0000200FC00F800040002000400F800FC0039
:1003D00002001C000200FC00C600280010002800DB
:1003E000C600C00020001E002000C00086009A0049
:1003F0009200B200C2000000FE0082008200820073
:10040000400020001000080004000000820082006C
:100410008200FE002000400080004000200002001A
:1004200002000200020002000000C000E000100014
:10043000000004002A002A001E000200FE00140032
:10044000220022001C001C002200220022001400B6
:100450001C00220022001400FE001C002A002A00BA
:100460002A001800000010007E00900040001800D4
:100470002500250039001E00FE001000200020008D
:100480001E0000002200BE00020000000400020066
:100490000200BC000000FE00080014002200000062
:1004A00000008200FE00020000003E0020001E004E
:1004B00020001E003E001000200020001E001C0036
:1004C0002200220022001C003F001800240024000B
:1004D000180018002400240018003F003E001000FF
:1004E00020002000100012002A002A002A00240008
:1004F00020002000FC00220024003C00020002003A
:1005000004003E00380004000200040038003C00F3
:1005100002000C0002003C0022001400080014003D
:10052000220032000900090009003E0022002600D6
:100530002A0032002200000010006C00820000003F
:1005400000000000EE0000000000000082006C00CF
:1005500010000000400080004000200040003C00EF
:100560006400C40064003C007800850085008600BB
:1005700048005C000200020004005E001C002A002B
:100580002A00AA009A008400AA00AA009E00820005
:1005900084002A002A001E0082008400AA002A008B
:1005A0001E00020004002A00AA009E000200300083
:1005B00078004A004E0048009C00AA00AA00AA0049
:1005C0009A009C002A002A002A009A009C00AA0097
:1005D0002A002A001A0000000000A2003E0082004B
:1005E00000004000A200BE00420000008000A20007
:1005F0003E0002000F009400240094000F000F0042
:100600001400A40014000F003E002A00AA00A2005B
:10061000000004002A002A003E002A003E0050008C
:100620009000FE0092004C009200920092004C005C
:100630004C001200120012004C004C00520012003C
:1006400012000C005C008200820084005E005C00EE
:100650004200020004001E000000B9000500050071
:10066000BE009C002200220022009C00BC00020070
:1006700002000200BC003C002400FF002400240013
:1006800012007E009200C2006600D400F4003F0019
:10069000F400D400FF00900094006F0004000300F9
:1006A00011007E009000C00004002A002A009E0075
:1006B0008200000000002200BE0082000C00120038
:1006C000120052004C001C000200020044005E00B8
:1006D00000005E00500050004E00BE00B0009800C8
:1006E0008C00BE00640094009400F40014006400C8
:1006F00094009400940064000C001200B200020008
:1007000004001C0010001000100010001000100069
:10071000100010001C00F4000800130035005D00FC
:10072000F400080014002C005F0000000000DE0050
:10073000000000001000280054002800440044007D
:10074000280054002800100055000000AA000000F6
:1007500055005500AA005500AA005500AA005500F2
:10076000AA005500AA00000000000000FF000000E1
:10077000080008000800FF000000280028002800EA
:10078000FF00000008000800FF000000FF00080054
:1007900008000F0008000F002800280028003F0074
:1007A000000028002800EF000000FF00000000000B
:1007B000FF000000FF00280028002F0020003F005D
:1007C00028002800E8000800F80008000800F800E9
:1007D0000800F800280028002800F80000000800A1
:1007E000080008000F000000000000000000F800F2
:1007F0000800080008000800F800080008000800C9
:1008000008000F000800000000000000FF000800C2
:100810000800080008000800080008000800080098
:10082000FF000800000000000000FF00280000009A
:100830000000FF000000FF0000000000F8000800BA
:10084000E800000000003F0020002F0028002800E2
:10085000E8000800E800280028002F0020002F00F2
:1008600000000000FF000000EF0028002800280022
:100870002800280028002800EF000000EF002800D2
:1008800028002800E800280008000800F8000800F8
:10089000F8002800280028002F0028000800080081
:1008A0000F0008000F0000000000F8000800F8002A
:1008B000000000000000F800280000000000000018
:1008C0003F002800000000000F0008000F00080093
:1008D0000800FF000800FF00280028002800FF0093
:1008E0002800080008000800F800000000000000D0
:1008F00000000F000800FF00FF00FF00FF00FF00E6
:100900000F000F000F000F000F00FF00FF00FF009F
:1009100000000000000000000000FF00FF00F000E9
:10092000F000F000F000F0001C00220022001C008B
:1009300022003E00540054007C0028007E0040004D
:1009400040006000600040007E0040007E004000EB
:10095000C600AA0092008200C6001C0022002200ED
:100960003C00200002007E000400780004006000CB
:1009700040007E00400040009900A500E700A5006F
:1009800099003800540092005400380032004E00A4
:1009900080004E0032000C005200B200B2000C0089
:1009A0000C0012001E0012000C003D0046005A0010
:1009B0006200BC007C0092009200920000007E0069
:1009C0008000800080007E005400540054005400D9
:1009D000540022002200FA002200220002008A00B5
:1009E0005200220002000200220052008A0002008F
:1009F00000000000FF008000C00007000100FF00B1
:100A00000000000010001000D600D60010006C009E
:100A100048006C0024006C006000F0009000F000C2
:100A20006000000000001800180000000000000036
:100A30000800080000000C000200FF008000800099
:100A40000000F80080008000780000009800B800E6
:100A5000E800480000003C003C003C003C00000076
:100A60000000000000000000000000000000000086
:100A70000000000000000000000000000000000076
:100A80000000000000000000000000000000000066
:100A90000000000000000000000000000000000056
:100AA0000000000000000000000000000000000046
:100AB0000000000000000000000000000000000036
:100AC0000000000000000000000000000000000026
:100AD0000000000000000000000000000000000016
:100AE0000000000000000000000000000000000006
:100AF00000C0E0F0F8F8FCFCFCFCE00000000000A6
:100B000000000000000000000000000000000000E5
:100B100000000000000000000000000000000000D5
:100B2000FEFC0000000000000000000000000000CB
:100B3000F8FC0E0E000000000000000000000000A5
:100B4000000000000000006060000000C0C0000065
:100B50000000000000000000000000000000F8F8A5
:100B6000F8F8F8F8F8F8F8F8F8F8F8F0E0E0E0FC51
:100B7000FFFFFFFFFF7FFFFFFFFFFF7C0000000084
:100B8000000000000000000000000000F0FC0E0665
:100B90000606060CFEFC0000F8FC0E060606069C87
:100BA000FFFF0060F89C060606060CFCFE0000062F
:100BB000FFFF060600FEFE0E06060200FEFE000017
:100BC0000000FEFE000000FEFE000006FFFF06061D
:100BD0000000000000000000000000000000011FF5
:100BE0003F7F7FFFFFFFFFFFFFFFF7E7E7C7CF9FD5
:100BF000FFFFFFEFE0F8FFFFFFFFFFFFFEFFFEFE3E
:100C0000FEFEFEFEFCFCF8F0E0C00000000307065C
:100C10000404060707070000010307060406060789
:100C20000707000001030606040606070700000088
:100C30000707000000070700000000000107060684
:100C40000606070100000007070000000707000074
:100C50000000000000000000000000000000000094
:100C600000C0E0F8F9FFFFFFFFFFFFBF8FC7C7F32A
:100C7000FFFFFFFF0F3FFEFCFCFCFCFEFFFFFFFF42
:100C8000FFFFFFFFFF7F3F0F07010000003038002C
:100C90000000000000000000000000000000000054
:100CA00000000000FEFE0000000000000000000048
:100CB0000000000000000000000000E0E000000074
:100CC00000000000000000383000000000000000BC
:100CD000000000000000000000000000000000E034
:100CE000FFFFFFFFFFFFFFFF7F7F7F7F3F1F1F0F84
:100CF0007FFFFFFFFEFCFFFFFFFFFFFFFFF800008D
:100D000000000000000000000000000000FFFF00E5
:100D10000000FFFF07030303FFFE000078FE8703C8
:100D200003030386FFFF00007FFF80000000FFFF3A
:100D30000000849F1F3B33F3E00003FFFF0301002B
:100D4000FFFF0303010000FFFF0000F8FE9F1313E5
:100D500013139E9C00008E9F1B3373E2C0000000A3
:100D60000000010100000000000000000000000081
:100D7000000103070F1F1F3F3F3F3F1F0F030000EE
:100D8000000000000000000000000000000303005D
:100D90000000030300000000030300000001030340
:100DA0000303030103030000000103030303030122
:100DB000000001030303030300000003030000001D
:100DC000030100000000000303000000010303030F
:100DD00003030101000001030303030100000000FD
:100DE0000000000000000000000000000000000003
:100DF00000000000000000000000000000000000F3
:100E000000000000000000000000000000000000E2
:100E100000000000000000000000000000000000D2
:100E200000000000000000000000000000000000C2
:100E300000000000000000000000000000000000B2
:100E400000000000000000000000000000000000A2
:100E5000000000000000000000000000000011245D
:100E60001FBECFEFD8E0DEBFCDBF15E0A0E0B1E000
:100E7000E6E4FAE202C005900D92A636B107D9F772
:100E800015E0A6E6B5E001C01D92AD36B107E1F769
:100E90000E94470F0C9421150C94000067FD35C08B
:100EA000403498F5342F36953695369570E050E0FD
:100EB0002223A9F020E8329F600D711D1124FC014E
:100EC000E60FF71F409550954770552781E090E059
:100ED00001C0880F4A95EAF79081892B15C020E858
:100EE000329F600D711D1124FC01E60FF71F409524
:100EF00050954770552781E090E001C0880F4A95D2
:100F0000EAF7809590818923808308952F923F92FC
:100F10004F925F926F927F928F929F92AF92BF9209
:100F2000CF92DF92EF92FF920F931F93CF93DF93B5
:100F300000D000D01F92CDB7DEB71C01562F342F42
:100F4000D02EF12C44244394512C10E0A22EB12C2D
:100F5000FE14C9F18F2D8770320102C0660C771C18
:100F60008A95E2F71D821C828F2D8695869586953F
:100F700045018D9D800C911C11247F2D730F8C8158
:100F80009D8180179107E9F0EC81FD81E80DF91D45
:100F9000E491F0E0E621F721EF2B69F02C2D472FAB
:100FA0006C81650FC1013A8359837B830E944E0790
:100FB0007B8159813A818C819D8101969D838C83AF
:100FC000DECFF394C5CF0F900F900F900F900F903E
:100FD000DF91CF911F910F91FF90EF90DF90CF9015
:100FE000BF90AF909F908F907F906F905F904F9049
:100FF0003F902F900895CF93DF9355E0259F900168
:101000001124220F331FA0E0B0E050E8459F800D6F
:10101000911D1124FD01E20FF31FE859FF4FE491E8
:10102000EC01C60FD11DE8836F5F1296AA30B1059F
:1010300089F7DF91CF910895EF92FF920F931F935D
:10104000CF93DF937C01C62FD42F8901F8018081D3
:10105000882389F00E94E40CF80121918F014D2F23
:101060006C2FC7010E94FB07CA5FCA3710F0DF5F11
:10107000C0E0D83058F3DF91CF911F910F91FF90CE
:10108000EF900895E42FE695E695E69520E8E29F37
:10109000F0011124E60FF11DE80FF91F50E0409513
:1010A00050954770552781E090E001C0880F4A9520
:1010B000EAF7809590818923808308959F92AF926B
:1010C000BF92CF92DF92EF92FF920F931F93CF9335
:1010D000DF936C01C62FD42F122F402F50E04D1BF1
:1010E000510957FF03C0519541955109812F90E057
:1010F0008C1B910997FF03C0919581959109AA24B2
:10110000A3948417950714F0A12C06C0812F102FEB
:10111000082F8C2FCD2FD82F1C1730F48D2FD02FC8
:10112000082F8C2FC12F182F912E9C1A402F50E082
:101130004D1B510957FF03C0519541955109F42E9C
:10114000B92CB694D01710F00FEF10C001E00EC00C
:101150002E2DAA2071F04C2F6D2FC6010E944E0734
:10116000BF18B7FE02C0D00FB90CCF5FC11780F314
:1011700003C04D2F6C2FF1CFDF91CF911F910F91B5
:10118000FF90EF90DF90CF90BF90AF909F90089529
:10119000AF92BF92CF92DF92EF92FF920F931F9385
:1011A000CF93DF935C01F42EC62FC22ED12CC60E36
:1011B000D11C10E0040F111D8C2F90E08C159D05A3
:1011C00084F4DF2D8D2F90E08017910744F42E2DAD
:1011D0004D2F6C2FC5010E944E07DF5FF3CFCF5F0D
:1011E000EBCFDF91CF911F910F91FF90EF90DF90A8
:1011F000CF90BF90AF9008959F92AF92BF92CF9241
:10120000DF92EF92FF920F931F93CF93DF936C01C6
:10121000F62EC42FD22F162FA22EB12CA60EB11C43
:1012200099249A94900E940E812F90E08A159B0534
:1012300074F42E2D4C2F612FC6010E944E072E2DC7
:10124000492D612FC6010E944E071F5FEDCF10E0B0
:101250000C0F111DD150DF0D8C2F90E080179107DE
:1012600074F42E2D4C2F6F2DC6010E944E072E2D8B
:101270004C2F6D2FC6010E944E07CF5FEDCFDF913F
:10128000CF911F910F91FF90EF90DF90CF90BF9083
:10129000AF909F9008958F929F92AF92BF92CF92FE
:1012A000DF92EF92FF920F931F93CF93DF937C0116
:1012B000A62E942E11E0121BD22ED194DD0CC22F3B
:1012C000422F490D202F0E944E07492D4C1B202FE5
:1012D0006A2DC7010E944E076C2F6A0D202F492DE1
:1012E000C7010E944E076A2D6C1B202F492DC70194
:1012F0000E944E07D0E0DC170CF04CC017FD04C074
:10130000C150D394D3941D0DDF5F8D2F880F8F5F55
:10131000180F8D2E8A0C202FCC2EC90C4C2D682D29
:10132000C7010E944E07BA2CBD1A202F4C2D6B2DE1
:10133000C7010E944E07202FC92CCC1A4C2D682DB6
:10134000C7010E944E07202F4C2D6B2DC7010E9414
:101350004E07CD2EC90C202F4C2DBC2EBA0C6B2D58
:10136000C7010E944E07202F4C2DCA2CCC1A6C2D81
:10137000C7010E944E07892C8D1A202F482D6B2DF6
:10138000C7010E944E07202F482D6C2DC7010E94D7
:101390004E07B1CFDF91CF911F910F91FF90EF904A
:1013A000DF90CF90BF90AF909F908F9008954F9215
:1013B0005F926F927F928F929F92AF92BF92CF92E5
:1013C000DF92EF92FF920F931F93CF93DF936C0105
:1013D000E62E642E11E0121BF22EF194FF0CC22FA8
:1013E000D42FD21BA42EB12C4501820E911C8D2F1F
:1013F00090E08816990644F0202F4D2F6E2DC601DF
:101400000E944E07DF5FF3CFD0E0DC170CF047C03F
:1014100017FD04C0C150F394F3941F0DDF5F8D2FAF
:10142000880F8F5F180F762C7C1A45018C0E911C4B
:10143000C7FD9A945D2E5E0C4E2C4D1A872D90E0C0
:101440008816990674F0202F472D652DC6010E943D
:101450004E07202F472D642DC6010E944E0773941E
:10146000EDCF762C7D1A45018D0E911CD7FD9A94F7
:101470005C2E5E0C4E2C4C1A872D90E08816990637
:1014800024F2202F472D652DC6010E944E07202FE4
:10149000472D642DC6010E944E077394EDCFDF9156
:1014A000CF911F910F91FF90EF90DF90CF90BF9061
:1014B000AF909F908F907F906F905F904F90089526
:1014C00020E034E0FC01A901119241505040E1F7C5
:1014D0000895CF93DF93C0E0D5E18C2F6D2F0E944C
:1014E000FC0F692F660F960F692F660F2C2F482F60
:1014F00080E091E00E94FB07CF5FC83A71F7DF916F
:10150000CF9108950F93CF93C0E001E02C2F4FE1CE
:101510006FE380E091E00E944B09CE5FC034A9F7F1
:10152000CF910F910895CF92DF92EF920F931F9377
:10153000CF93DF936C01C0E010E4D0E8012F0C1BC7
:101540002D2F2C1BEE24E3944C2F6C2FC6010E94F0
:10155000FC08CE5FC03491F7DF91CF911F910F91BE
:10156000EF90DF90CF900895CF92DF92EF920F939C
:101570001F93CF93DF936C01C0E010E4D0E88C2F71
:101580008170E82E012F0C1B2D2F2C1B4C2F6C2F44
:10159000C6010E94C808CF5FC03489F7DF91CF91A0
:1015A0001F910F91EF90DF90CF90089527E030E0EA
:1015B00090E02898AC01022E02C0559547950A94F8
:1015C000E2F740FF02C0299A01C02998289A2150C9
:1015D000310978F708955F980C94D60A219A209AD9
:1015E000579A569A559A5D985E982FEF89E698E13A
:1015F000215080409040E1F700C000005E9A83EAED
:101600000E94EB0A80EA0E94EB0A80EC0E94EB0A3F
:1016100080E40E94EB0A8CE20E94EB0A2FEF80E745
:1016200092E0215080409040E1F700C000008EE23F
:101630000E94EB0A2FEF80E792E02150804090401B
:10164000E1F700C000008FE20E94EB0A8FE39CE903
:101650000197F1F700C0000086E20C94EB0A5F9A54
:101660000C94D60ACF93DF93D0E08D2F806B0E942D
:10167000EB0AC0E08C2F8F700E94EB0A8C2F8295B2
:101680008F7080610E94EB0A80E00E942F0BCF5F79
:10169000C13881F7DF5FD83041F7DF91CF910895EE
:1016A000CF93C82F81E80E94EB0A8C2F8F73CF91C4
:1016B0000C94EB0A8F929F92AF92BF92CF92DF92DF
:1016C000EF92FF920F931F93CF93DF937C0180E300
:1016D00095E00E94341200E015E0E70157018CEF1D
:1016E000B81A8EE3C82E85E0D82EF8018081806B71
:1016F0000E94EB0AF80181810E5F1F4F8F9380815A
:101700008F93DF92CF920E941E1280E00E94EB0A1C
:1017100080E10E94EB0A80EE0E94EB0A8FEF0E94AC
:101720002F0B0F900F900F900F904E01F12CF401A2
:1017300081914F010E942F0BF394F0E8FF12F7CF35
:10174000C058DF4FCA15DB0581F6DF91CF911F919D
:101750000F91FF90EF90DF90CF90BF90AF909F9050
:101760008F900895229A2A9A259A0E94EE0A8FEA6B
:101770000E94EB0A84EA0E94EB0A80E20E94500B6E
:101780000E94320B2D9A80E091E00C945A0BCF937B
:10179000DF93CDB7DEB76F970FB6F894DEBF0FBEFD
:1017A000CDBF4F8FF22EFC01E656FD4F608170E0F9
:1017B00080E090E00E9415126E0121E2C20ED11C61
:1017C0008E010D5F1F4F80E8882E912CA12CB12C2B
:1017D00095E0492E512C612C712C0E941012180199
:1017E000E2E02E1A3108A50194010E943E10F10199
:1017F0006083319610820E941012A30192010E9410
:101800003E106F5FF80160830D5F1F4F0C151D05C3
:1018100021F71E01FFE12F0E311C8EE59AE0182FF3
:10182000FE0131963F015F01CC24C394EF2C0F8D54
:10183000EEE5FAE02E2FF5014181608180E091E034
:101840000E948607F3E0AF0EB11CA214B30461F747
:1018500080E091E00E945A0B2FEF83EC99E0215039
:1018600080409040E1F700C00000FE0132965F0129
:10187000CE0103962C01C12CEF2C0F8D212FF501E9
:101880004081F301608180E091E00E948607F201CF
:101890009081F5018081890F80838134B8F00E94A6
:1018A000101220E830E040E050E00E943E10F301CA
:1018B0006083F50110820E94101225E030E040E0C4
:1018C00050E00E943E106F5FF2016083F3E0AF0EC4
:1018D000B11C23E0620E711C83E0480E511C62149F
:1018E000730449F69DCFEF920F93CF93C0E0EE249F
:1018F000E3940FE32C2F40E060E080E091E00E9451
:101900005E08CC5FC03899F7C0E0EE24E3940C2F5A
:101910002FE740E060E080E091E00E945E08CC5F4D
:10192000C03499F780E091E00E945A0B2FEF83EDCD
:1019300090E3215080409040E1F700C00000C0E0FB
:10194000E12C00E020E04FE36C2F80E091E00E946A
:101950005E08CC5FC038A1F7C0E0E12C00E020E0D9
:101960004C2F6FE780E091E00E945E08CC5FC034AE
:10197000A1F7CF910F91EF90089580E091E0089545
:101980009093C5008093C40088E18093C1008EE0ED
:101990008093C200519A50980895882331F0815065
:1019A0009EE100009150E9F7F8CF0895882359F09F
:1019B0002FEF33ED90E3215030409040E1F700C02D
:1019C00000008150F3CF08959091C00095FFFCCFA7
:1019D0008093C60080E090E008958091C00087FF6A
:1019E000FCCF8091C60008958091C0008078089552
:1019F000FF920F931F93CF93DF931F92CDB7DEB764
:101A00008C01F12CF801EF0DF11D9491992339F01F
:101A1000849169830E94E40CF3946981F3CF662377
:101A200061F08AE00E94E40C8DE00F90DF91CF918D
:101A30001F910F91FF900C94E40C0F90DF91CF91C8
:101A40001F910F91FF900895CF93DF93EC0189913F
:101A5000882319F00E94E40CFACFDF91CF9108950A
:101A6000CF93C82F82958F708A3010F4805D01C0AB
:101A7000895A0E94E40C8C2F8F708A3010F4805D9C
:101A800001C0895ACF910C94E40CCF93C82F892FB1
:101A90000E94300D8C2FCF910C94300DCF92DF929D
:101AA000EF92FF926B017C01C7010E94450DC601B8
:101AB000FF90EF90DF90CF900C94450DAF92BF92C6
:101AC000CF92DF92EF92FF920F931F93CF93DF930A
:101AD0001F92CDB7DEB77C0105E010E020E080E189
:101AE000A82E87E2B82E9AE0C92ED12CC701B501E5
:101AF0000E940810611106C0211104C081E0A816DF
:101B0000B10439F480E3860F69830E94E40C21E07C
:101B100069816A9DC0016B9D900D1124E81AF90A34
:101B2000C501B6010E9408105B0101501109F1F6D0
:101B30000F90DF91CF911F910F91FF90EF90DF9069
:101B4000CF90BF90AF900895CF92DF92EF92FF9227
:101B50000F931F93CF93DF93C82F87FF04C08DE2AD
:101B60000E94E40CC19583E0E82EF12C20E004E60D
:101B700010E09AE0C92ED12C8C2F992787FD9095E3
:101B8000B8010E940810D62F16162CF0211103C0A0
:101B90000130110529F480E38D0F0E94E40C21E04F
:101BA000D09FC0191124C801B6010E9408108B01F2
:101BB00081E0E81AF10801F7DF91CF911F910F91B1
:101BC000FF90EF90DF90CF9008954F925F926F92C9
:101BD0007F928F929F92AF92BF92CF92DF92EF92BD
:101BE000FF920F931F93CF93DF934B015C01CAE0E9
:101BF000D0E000E0C12C8AECD82E8AE9E82E8BE3F5
:101C0000F82E9AE0492E512C612C712CC501B4019B
:101C1000A70196010E941C10122F211108C001116A
:101C200006C081E0C816D104E104F10429F480E380
:101C3000810F0E94E40C01E0A12FB0E0A701960102
:101C40000E94F10F861A970AA80AB90AC701B601BD
:101C5000A30192010E941C1069017A012197B1F63B
:101C6000DF91CF911F910F91FF90EF90DF90CF9078
:101C7000BF90AF909F908F907F906F905F904F90AC
:101C80000895CF93C82F8A3019F48DE00E94410E39
:101C90008091C00085FFFCCFC093C600CF9108950E
:101CA0008091C00087FFFCCF8091C60008951092FC
:101CB000C50087E68093C400E0ECF0E080818D7F72
:101CC000808386E08093C20088E18093C100E7E6CC
:101CD000F5E08EE195E09383828380E195E0918346
:101CE0008083089518161906B4F4BC016150710977
:101CF000882777FD8095982F0E94D31023E333E344
:101D00004BE450E40E945F1120E030E040E250E4F8
:101D10000E946D10089560E070E0CB0108958091FD
:101D20007A00806480937A0080917A0084FFFCCFEF
:101D3000609178007091790080E090E00E94D1106D
:101D400021E830E840E85BE30E945F110895FB0161
:101D500031962FEF30E0D90102C0AA0FBB1FEA95E0
:101D6000E2F7FD01E823F923A8E0B0E0A61BB70BDA
:101D700002C035952795AA95E2F72E2B3F2B82239B
:101D800093234170552702C0440F551F6A95E2F70F
:101D9000842B952B0895CF93DF93EC018BB1AE018B
:101DA0004170552762E070E090E00E94A70E4C2F32
:101DB0004695417050E063E070E00E94A70EC2FBC0
:101DC000442740F950E064E070E00E94A70E8BB910
:101DD000DF91CF910895CF93DF93EC0188B1AE01ED
:101DE0004170552760E070E090E00E94A70E4C2FF4
:101DF0004695417050E061E070E00E94A70EC2FB82
:101E0000442740F950E062E070E00E94A70EC3FB57
:101E1000442740F950E063E070E00E94A70E88B9C3
:101E200085B14C2F4295417050E062E070E090E047
:101E30000E94A70EC5FB442740F950E063E070E024
:101E40000E94A70EC6FB442740F950E064E070E012
:101E50000E94A70EC7FB442740F950E065E070E000
:101E60000E94A70E85B9DF91CF910895ECE7F0E0CD
:101E700080E48083808185608083EAE7F0E080EE03
:101E8000808380818760808310927B0008950E9408
:101E9000570E85E084BD8DEF84B98FEE87B98FEF43
:101EA0008AB90E94B20B0E94BD0CEC010E94600A2C
:101EB0002DE440E064E6CE010E94FB0725E640E009
:101EC0006AE6CE010E94FB072EE640E060E7CE0105
:101ED0000E94FB0725E740E066E7CE010E94FB0772
:101EE00024E441E064E6CE010E94FB0729E641E0DC
:101EF0006AE6CE010E94FB0723E741E060E7CE01DE
:101F00000E94FB0720E741E066E7CE010E94FB0745
:101F100028E440E060E0CE010E94FB0729E440E0B5
:101F200066E0CE010E94FB0723E540E06CE0CE01B5
:101F30000E94FB0724E540E062E1CE010E94FB071E
:101F40002FE440E068E1CE010E94FB0727E440E077
:101F50006EE1CE010E94FB0722E540E064E2CE0183
:101F60000E94FB0721E440E06AE2CE010E94FB07E9
:101F70002DE440E060E3CE010E94FB07CE010E9409
:101F80005A0B88E4E82E85E0F82E00E010E0C80146
:101F90000E94CB0EC0E0D0E0D12CC12CCE010E941B
:101FA000EB0E8FEF90E00197F1F72196349B02C082
:101FB000DC2ECD2EC93AD10589F71F930F93CF920E
:101FC000DF92FF92EF920E941E120F5F1F4F0F9041
:101FD0000F900F900F900F900F9007301105B9F6EA
:101FE000D4CF0E945D10A59F900DB49F900DA49F2B
:101FF000800D911D11240895991B79E004C0991F4B
:10200000961708F0961B881F7A95C9F78095089552
:10201000AA1BBB1B51E107C0AA1FBB1FA617B7070E
:1020200010F0A61BB70B881F991F5A95A9F780952A
:102030009095BC01CD010895A1E21A2EAA1BBB1BED
:10204000FD010DC0AA1FBB1FEE1FFF1FA217B30784
:10205000E407F50720F0A21BB30BE40BF50B661F9A
:10206000771F881F991F1A9469F76095709580955E
:1020700090959B01AC01BD01CF010895052E97FB02
:102080001EF400940E94551057FD07D00E941C10AA
:1020900007FC03D04EF40C945510509540953095A4
:1020A00021953F4F4F4F5F4F0895909580957095C4
:1020B00061957F4F8F4F9F4F0895A29FB001B39FAF
:1020C000C001A39F700D811D1124911DB29F700D41
:1020D000811D1124911D08955058BB27AA270ED0A9
:1020E000B4C0A5D030F0AAD020F031F49F3F11F455
:1020F0001EF49AC00EF4E095E7FB90C0E92FB6D02D
:1021000080F3BA17620773078407950718F071F414
:102110009EF5CEC00EF4E0950B2EBA2FA02D0B012C
:10212000B90190010C01CA01A0011124FF27591B1C
:1021300099F0593F50F4503E68F11A16F040A22F22
:10214000232F342F4427585FF3CF46953795279593
:10215000A795F0405395C9F77EF41F16BA0B620B92
:10216000730B840BBAF09150A1F0FF0FBB1F661FD9
:10217000771F881FC2F70EC0BA0F621F731F841F1C
:1021800048F4879577956795B795F7959E3F08F042
:10219000B3CF9395880F08F09927EE0F9795879501
:1021A0000895E89409C097FB3EF49095809570954A
:1021B00061957F4F8F4F9F4F9923A9F0F92F96E993
:1021C000BB279395F695879577956795B795F11108
:1021D000F8CFFAF4BB0F11F460FF1BC06F5F7F4FA5
:1021E0008F4F9F4F16C0882311F096E911C07723B7
:1021F00021F09EE8872F762F05C0662371F096E8C0
:10220000862F70E060E02AF09A95660F771F881F8E
:10221000DAF7880F9695879597F9089597F99F674C
:1022200080E870E060E008959FEF80EC089500245E
:102230000A941616170618060906089500240A942B
:1022400012161306140605060895092E0394000CB1
:1022500011F4882352F0BB0F40F4BF2B11F460FF40
:1022600004C06F5F7F4F8F4F9F4F089557FD905869
:10227000440F551F59F05F3F71F04795880F97FB4A
:10228000991F61F09F3F79F0879508951216130604
:102290001406551FF2CF4695F1DF08C01616170633
:1022A0001806991FF1CF8695710561050894089568
:1022B000E894BB2766277727CB0197F908950BD0C1
:1022C000C4CFB5DF28F0BADF18F0952309F0A6CF08
:1022D000ABCF1124EECFCADFA0F3959FD1F3950FBA
:1022E00050E0551F629FF001729FBB27F00DB11D9A
:1022F000639FAA27F00DB11DAA1F649F6627B00D2A
:10230000A11D661F829F2227B00DA11D621F739F12
:10231000B00DA11D621F839FA00D611D221F749F20
:102320003327A00D611D231F849F600D211D822F67
:10233000762F6A2F11249F5750408AF0E1F08823AE
:102340004AF0EE0FFF1FBB1F661F771F881F9150BB
:102350005040A9F79E3F510570F060CFAACF5F3F74
:10236000ECF3983EDCF3869577956795B795F795EE
:10237000E7959F5FC1F7FE2B880F911D9695879576
:1023800097F908958F929F92AF92BF92CF92DF926A
:10239000EF92FF92CF93DF93EC01688179818A817C
:1023A0009B81611571058105910521F464E279ED48
:1023B0008BE597E02DE133EF41E050E00E943E10C5
:1023C00049015A019B01AC01A7EAB1E40E94F10F57
:1023D0006B017C01ACEEB4EFA50194010E94E51401
:1023E000DC01CB018C0D9D1DAE1DBF1DB7FF03C0D1
:1023F0000197A109B04888839983AA83BB83BC0154
:10240000CD019F77DF91CF91FF90EF90DF90CF903C
:10241000BF90AF909F908F9008950E94C211089531
:102420008CE295E00E94C211089560932C05709390
:102430002D0580932E0590932F050895A0E0B0E020
:10244000E4E2F2E10C94FA14AE014B5F5F4FFA0143
:1024500061917191AF018091690590916A050E9427
:102460006412E2E00C9416150F931F93CF93DF9341
:10247000E0916905F0916A05238121FF1BC08C0161
:10248000D0E0C0E0F80181918F0160916905709101
:102490006A05DB011896ED91FC911997882331F0BC
:1024A0000995892B79F3DFEFCFEFECCF8AE009951F
:1024B000892B19F08FEF9FEF02C08D2F9C2FDF919A
:1024C000CF911F910F910895ACE0B0E0EAE6F2E100
:1024D0000C94EA147C016B018A01FC0117821682BC
:1024E000838181FFBDC1CE0101964C01F70193812B
:1024F000F60193FD859193FF81916F01882309F483
:10250000ABC1853239F493FD859193FF81916F01C1
:10251000853229F4B70190E00E944C14E7CF512C8A
:10252000312C20E02032A0F48B3269F030F480327C
:1025300059F0833269F420612CC08D3239F0803338
:1025400039F4216026C02260246023C0286021C0A5
:1025500027FD27C030ED380F3A3078F426FF06C04B
:10256000FAE05F9E300D1124532E13C08AE0389E8E
:10257000300D1124332E20620CC08E3221F426FD42
:102580006BC1206406C08C3611F4206802C0883606
:1025900041F4F60193FD859193FF81916F018111C3
:1025A000C1CF982F9F7D9554933028F40C5F1F4F17
:1025B000FFE3F9830DC0833631F0833771F0833543
:1025C00009F05BC022C0F801808189830E5F1F4F34
:1025D00044244394512C540115C03801F2E06F0E8D
:1025E000711CF801A080B18026FF03C0652D70E04A
:1025F00002C06FEF7FEFC5012C870E9441142C01B0
:1026000083012C852F77222E17C03801F2E06F0E40
:10261000711CF801A080B18026FF03C0652D70E019
:1026200002C06FEF7FEFC5012C870E9436142C018A
:102630002C852068222E830123FC1BC0832D90E073
:1026400048165906B0F4B70180E290E00E944C149D
:102650003A94F4CFF50127FC859127FE81915F0123
:10266000B70190E00E944C1431103A94F1E04F1AF7
:1026700051084114510471F7E5C0843611F08936D0
:1026800039F5F80127FF07C060817181828193814C
:102690000C5F1F4F08C060817181882777FD80958E
:1026A000982F0E5F1F4F2F76722E97FF09C09095BF
:1026B0008095709561957F4F8F4F9F4F2068722E48
:1026C0002AE030E0A4010E948414A82EA81844C077
:1026D000853729F42F7EB22E2AE030E025C0F22F74
:1026E000F97FBF2E8F36C1F018F4883579F0B4C069
:1026F000803719F0883721F0AFC02F2F2061B22E1C
:10270000B4FE0DC08B2D8460B82E09C024FF0AC012
:102710009F2F9660B92E06C028E030E005C020E16A
:1027200030E002C020E132E0F801B7FE07C060816E
:102730007181828193810C5F1F4F06C0608171811E
:1027400080E090E00E5F1F4FA4010E948414A82E29
:10275000A818FB2DFF777F2E76FE0BC0372D3E7F0E
:10276000A51450F474FE0AC072FC08C0372D3E7EDA
:1027700005C0BA2C372D03C0BA2C01C0B52C34FFCC
:102780000DC0FE01EA0DF11D8081803311F4397E08
:1027900009C032FF06C0B394B39404C0832F867877
:1027A00009F0B39433FD13C030FF06C05A2CB314A4
:1027B00018F4530C5B18B32CB31468F4B70180E21F
:1027C00090E03C870E944C14B3943C85F5CFB31441
:1027D00010F43B1801C0312C34FF12C0B70180E364
:1027E00090E03C870E944C143C8532FF17C031FDBD
:1027F00003C088E790E002C088E590E0B7010CC014
:10280000832F867859F031FF02C08BE201C080E24D
:1028100037FD8DE2B70190E00E944C14A51438F406
:10282000B70180E390E00E944C145A94F7CFAA9429
:10283000F401EA0DF11D8081B70190E00E944C1473
:10284000A110F5CF332009F451CEB70180E290E01A
:102850000E944C143A94F6CFF7018681978102C00A
:102860008FEF9FEF2C96E2E10C940615FC0105908A
:10287000615070400110D8F7809590958E0F9F1F82
:102880000895FC016150704001900110D8F78095C7
:1028900090958E0F9F1F08950F931F93CF93DF93F3
:1028A000FB01238121FD03C08FEF9FEF28C022FF92
:1028B00016C046815781248135814217530744F45D
:1028C000A081B1819D012F5F3F4F318320838C9385
:1028D000268137812F5F3F4F3783268310C0EB015E
:1028E000092F182F0084F185E02D0995892BE1F639
:1028F0008E819F8101969F838E83812F902FDF9100
:10290000CF911F910F910895FA01AA27283051F114
:10291000203181F1E8946F936E7F6E5F7F4F8F4F10
:102920009F4FAF4FB1E03ED0B4E03CD0670F781F6F
:10293000891F9A1FA11D680F791F8A1F911DA11D54
:102940006A0F711D811D911DA11D20D009F468948D
:102950003F912AE0269F11243019305D3193DEF635
:10296000CF010895462F4770405D4193B3E00FD0EB
:10297000C9F7F6CF462F4F70405D4A3318F0495DD6
:1029800031FD4052419302D0A9F7EACFB4E0A695B9
:102990009795879577956795BA95C9F700976105DB
:1029A000710508959B01AC010A2E06945795479531
:1029B00037952795BA95C9F7620F731F841F951F26
:1029C000A01D0895B7FF0C94F10F0E94F10F821B18
:1029D000930B08952F923F924F925F926F927F9246
:1029E0008F929F92AF92BF92CF92DF92EF92FF921F
:1029F0000F931F93CF93DF93CDB7DEB7CA1BDB0BCB
:102A00000FB6F894DEBF0FBECDBF09942A8839886F
:102A100048885F846E847D848C849B84AA84B98476
:102A2000C884DF80EE80FD800C811B81AA81B98182
:102A3000CE0FD11D0FB6F894DEBF0FBECDBFED0196
:062A40000895F894FFCF99
:102A46000000000000000000000000000000000080
:102A56000000000000000000000000000000000070
:102A66000000000000000000000000000000000060
:102A76000000000000000000000000000000000050
:102A86000000000000000000000000000000000040
:102A96000000000000000000000000000000000030
:102AA6000000000000000000000000000000000020
:102AB6000000000000000000000000000000000010
:102AC6000000000000000000000000000000000000
:102AD60000000003070F1F1F3F3F3F3F0700000096
:102AE60000000000000000000000000000000000E0
:102AF60000000000000000000000000000000000D0
:102B060000007F3F00000000000000000000000001
:102B160000001F3F70700000000000000000000071
:102B2600000000000000000000060600000003038D
:102B3600000000000000000000000000000000008F
:102B46001F1F1F1F1F1F1F1F1F1F1F1F1F0F0707CF
:102B5600073FFFFFFFFFFFFEFFFFFFFFFF3E0000F7
:102B660000000000000000000000000000000F3F11
:102B76007060606060307F3F00001F3F7060606083
:102B86006039FFFF00061F3960606060303F7F00DC
:102B96000060FFFF6060007F7F70606040007F7FA5
:102BA600000000007F7F0000007F7F000060FFFFC5
:102BB600606000000000000000000000000000004F
:102BC60080F8FCFEFEFFFFFFFFFFFFFFEFE7E7E3F6
:102BD600F3F9FFFFFFF7071FFFFFFFFFFFFF7FFF71
:102BE6007F7F7F7F7F7F3F3F1F0F0703000000C06F
:102BF600E060202060E0E0E0000080C0E06020604F
:102C060060E0E0E0000080C06060206060E0E0001E
:102C16000000E0E0000000E0E0000000000080E0CE
:102C260060606060E080000000E0E0000000E0E03E
:102C3600000000000000000000000000000000008E
:102C460000000003071F9FFFFFFFFFFFFFFDF1E3EB
:102C5600E3CFFFFFFFFFF0FC7F3F3F3F3F7FFFFFDC
:102C6600FFFFFFFFFFFFFFFEFCF0E0800000000C0F
:102C76001C00000000000000000000000000000032
:102C86000000000000007F7F000000000000000040
:102C96000000000000000000000000000007070020
:102CA6000000000000000000001C0C0000000000F6
:102CB600000000000000000000000000000000000E
:102CC6000007FFFFFFFFFFFFFFFFFEFEFEFEFCF813
:102CD600F8F0FEFFFFFF7F3FFFFFFFFFFFFFFF1F35
:102CE600000000000000000000000000000000FFDF
:102CF600FF000000FFFFE0C0C0C0FF7F00001E7F96
:102D0600E1C0C0C0C061FFFF0000FEFF010000007F
:102D1600FFFF000021F9F8DCCCCF0700C0FFFFC0A1
:102D26008000FFFFC0C0800000FFFF00001F7FF98A
:102D3600C8C8C8C87939000071F9D8CCCE47030095
:102D4600000000008080000000000000000000007D
:102D560000000080C0E0F0F8F8FCFCFCFCF8F0C0D5
:102D6600000000000000000000000000000000C09D
:102D7600C0000000C0C000000000C0C0000000800D
:102D8600C0C0C0C0C080C0C000000080C0C0C0C0FD
:102D9600C080000080C0C0C0C0C0000000C0C0002D
:102DA6000000C0800000000000C0C000000080C01D
:102DB600C0C0C0C08080000080C0C0C0C08000000D
:102DC60000000000000000000000000000000000FD
:102DD60000000000000000000000000000000000ED
:102DE60000000000000000000000000000000000DD
:102DF60000000000000000000000000000000000CD
:102E060000000000000000000000000000000000BC
:102E160000000000000000000000000000000000AC
:102E2600000000000000000000000000000000009C
:102E3600000000000000000000000000000000008C
:102E46000300020001000000070006000500040060
:102E560000000001000000000000500E000000000D
:102E6600000200000000410E00000000010000000A
:102E760077726974655F6275666665722000706157
:102E860067653A2025690A00486967686573742092
:102E9600436F6E647563746F723A202825692C201F
:062EA600256929200A0045
:00000001FF
