:100000000C9456000C9473000C9473000C947300C1
:100010000C9473000C9473000C9473000C94730094
:100020000C9473000C9473000C9473000C94730084
:100030000C9473000C9473000C9473000C94730074
:100040000C9473000C9473000C9473000C94730064
:100050000C9473000C9473000C9473000C94730054
:100060000C9473000C9473000C9473000C94730044
:100070000C9473000C9473000C9473000C94730034
:100080000C9473000C9473000C9473000C94730024
:100090000C9473000C9473000C9473000C94730014
:1000A0000C9473000C9473000C94730011241FBE05
:1000B000CFEFDAE0DEBFCDBF11E0A0E0B1E0EAEFC4
:1000C000FCE002C005900D92AE34B107D9F711E003
:1000D000AEE4B1E001C01D92A435B107E1F70E9482
:1000E000E5010C947B060C940000CF93C82F8A3056
:1000F00019F48DE00E947500E8ECF0E0908195FF26
:10010000FDCFC093CE00CF910895CF93BC01E8EC12
:10011000F0E090819923ECF7C091CE008C2F0E94E3
:1001200075008C2FCF910895E8ECF0E080818D7FF1
:10013000808388E18093C90086E48093CA0010928E
:10014000CD0087E68093CC00EEE4F1E08EE091E014
:100150009383828380E091E09183808308958091EE
:10016000C800882344F4AEECB0E0E8ECF0E08C91F9
:1001700080818823E4F30895CF93DF93CEE4D1E028
:100180006A817B818BE190E00E94B0036A817B8170
:100190008BE590E00E94B0036A817B8188E490E067
:1001A0000E94B0036A817B818BE190E00E94B003E2
:1001B0006A817B818BE590E00E94B0036A817B813C
:1001C0008AE490E00E94B003DF91CF910895CF932D
:1001D000DF93CEE4D1E06A817B818BE190E00E94E5
:1001E000B0036A817B818BE590E00E94B0036A8155
:1001F0007B8180E390E00E94B0036A817B818DE681
:1002000090E00E94B003DF91CF9108950E94E70033
:100210000E94BC000E94E7000E94BC000E94AF0048
:10022000089518161906B4F4BC01615071098827A5
:1002300077FD8095982F0E94C10223E333E34BE4BE
:1002400050E40E944D0320E030E040E250E40E9480
:100250005B02089560E070E0CB010895EAE7F0E00A
:10026000808180648083808184FFFDCF60917800ED
:100270007091790080E090E00E94BF0221E830E8B0
:1002800040E85BE30E944D030895FB0131962FEF98
:1002900030E0D90102C0AA0FBB1FEA95E2F7FD01C9
:1002A000E823F923A8E0B0E0A61BB70B02C0359500
:1002B0002795AA95E2F72E2B3F2B8223932341709B
:1002C000552702C0440F551F6A95E2F7842B952BE2
:1002D0000895CF93DF93EC0181B3AE0141705527B0
:1002E00065E070E090E00E9445014C2F469541701A
:1002F00050E066E070E00E944501C2FB442740F9EF
:1003000050E067E070E00E94450181BBDF91CF9132
:100310000895CF93DF93EC018BB1AE014170552767
:1003200060E070E090E00E9445014C2F46954170DE
:1003300050E061E070E00E944501C2FB442740F9B3
:1003400050E064E070E00E944501C3FB442740F99F
:1003500050E066E070E00E9445018BB985B14C2FFA
:100360004295417050E061E070E090E00E944501EC
:10037000C5FB442740F950E063E070E00E9445016E
:10038000C6FB442740F950E066E070E00E9445015A
:10039000C7FB442740F950E067E070E00E94450148
:1003A00085B9DF91CF910895ECE7F0E080E4808398
:1003B000808185608083EAE7F0E080EE8083808141
:1003C0008760808310927B000895CF93DF9300D0E5
:1003D00000D0CDB7DEB70E9494000E94D40185E022
:1003E00084BD8FEF84B98AB980BBC12CD12C0F2E6C
:1003F000FCE16F2EF1E07F2EF02D0F2EF9E32F2E72
:10040000F1E03F2EF02D0F2EF3E44F2EF1E05F2EA2
:10041000F02DC982DA820FEF10E0EC2CFD2C812C3C
:10042000912CA12CB12CC7010E94690189818B8379
:100430009A819C83EB81FC81EF2B31F40E942E0189
:10044000862E972EA82EB92E8B819C810E94890121
:10045000802F912F0197F1F78B819C8101969C83CE
:100460008B838A3A910531F7FF92EF921F921F9288
:100470007F926F920E94E8031F921F921F921F9219
:100480003F922F920E94E803BF92AF929F928F9269
:100490005F924F920E94E8039FEFE91AF90A0FB6A4
:1004A000F894DEBF0FBECDBFF7E0EF16F10409F000
:1004B000BACFB3CF5058BB27AA270ED0B4C0A5D00F
:1004C00030F0AAD020F031F49F3F11F41EF49AC00E
:1004D0000EF4E095E7FB90C0E92FB6D080F3BA1791
:1004E000620773078407950718F071F49EF5CEC074
:1004F0000EF4E0950B2EBA2FA02D0B01B90190013F
:100500000C01CA01A0011124FF27591B99F0593F82
:1005100050F4503E68F11A16F040A22F232F342FCA
:100520004427585FF3CF469537952795A795F04018
:100530005395C9F77EF41F16BA0B620B730B840B2D
:10054000BAF09150A1F0FF0FBB1F661F771F881FE5
:10055000C2F70EC0BA0F621F731F841F48F487953D
:1005600077956795B795F7959E3F08F0B3CF93952C
:10057000880F08F09927EE0F979587950895E894CE
:1005800009C097FB3EF490958095709561957F4FDB
:100590008F4F9F4F9923A9F0F92F96E9BB27939589
:1005A000F695879577956795B795F111F8CFFAF499
:1005B000BB0F11F460FF1BC06F5F7F4F8F4F9F4FCA
:1005C00016C0882311F096E911C0772321F09EE828
:1005D000872F762F05C0662371F096E8862F70E08E
:1005E00060E02AF09A95660F771F881FDAF7880F68
:1005F0009695879597F9089597F99F6780E870E039
:1006000060E008959FEF80EC089500240A94161688
:10061000170618060906089500240A9412161306F0
:10062000140605060895092E0394000C11F488237E
:1006300052F0BB0F40F4BF2B11F460FF04C06F5F9A
:100640007F4F8F4F9F4F089557FD9058440F551F70
:1006500059F05F3F71F04795880F97FB991F61F044
:100660009F3F79F087950895121613061406551FBB
:10067000F2CF4695F1DF08C0161617061806991F27
:10068000F1CF86957105610508940895E894BB271C
:1006900066277727CB0197F908950BD0C4CFB5DF34
:1006A00028F0BADF18F0952309F0A6CFABCF1124BC
:1006B000EECFCADFA0F3959FD1F3950F50E0551F01
:1006C000629FF001729FBB27F00DB11D639FAA27A7
:1006D000F00DB11DAA1F649F6627B00DA11D661FF6
:1006E000829F2227B00DA11D621F739FB00DA11D17
:1006F000621F839FA00D611D221F749F3327A00DD1
:10070000611D231F849F600D211D822F762F6A2F6C
:1007100011249F5750408AF0E1F088234AF0EE0FF1
:10072000FF1FBB1F661F771F881F91505040A9F7FE
:100730009E3F510570F060CFAACF5F3FECF3983E2B
:10074000DCF3869577956795B795F795E7959F5F65
:10075000C1F7FE2B880F911D9695879597F90895FF
:100760000F931F93CF93DF93FB01238121FD03C0E0
:100770008FEF9FEF28C022FF16C04681578124814A
:1007800035814217530744F4A081B1819D012F5F49
:100790003F4F318320838C93268137812F5F3F4FDA
:1007A0003783268310C0EB01092F182F0084F185B1
:1007B000E02D0995892BE1F68E819F8101969F831B
:1007C0008E83812F902FDF91CF911F910F910895EC
:1007D000A0E0B0E0EEEEF3E00C945406AE014B5F07
:1007E0005F4FFA0161917191AF0180915001909139
:1007F00051010E94FE03E2E00C947006ACE0B0E010
:10080000E4E0F4E00C9444067C016B018A01FC01F5
:1008100017821682838181FFBDC1CE0101964C01F2
:10082000F7019381F60193FD859193FF81916F010B
:10083000882309F4ABC1853239F493FD859193FF88
:1008400081916F01853229F4B70190E00E94B003D5
:10085000E7CF512C312C20E02032A0F48B3269F00C
:1008600030F4803259F0833269F420612CC08D322B
:1008700039F0803339F4216026C02260246023C01F
:10088000286021C027FD27C030ED380F3A3078F4BA
:1008900026FF06C0FAE05F9E300D1124532E13C0D0
:1008A0008AE0389E300D1124332E20620CC08E3227
:1008B00021F426FD6BC1206406C08C3611F420683B
:1008C00002C0883641F4F60193FD859193FF819132
:1008D0006F018111C1CF982F9F7D9554933028F4DB
:1008E0000C5F1F4FFFE3F9830DC0833631F0833770
:1008F00071F0833509F05BC022C0F80180818983E3
:100900000E5F1F4F44244394512C540115C03801ED
:10091000F2E06F0E711CF801A080B18026FF03C0C9
:10092000652D70E002C06FEF7FEFC5012C870E943C
:10093000DB052C0183012C852F77222E17C038016F
:10094000F2E06F0E711CF801A080B18026FF03C099
:10095000652D70E002C06FEF7FEFC5012C870E940C
:10096000D0052C012C852068222E830123FC1BC07E
:10097000832D90E048165906B0F4B70180E290E06C
:100980000E94B0033A94F4CFF50127FC859127FE2D
:1009900081915F01B70190E00E94B00331103A9459
:1009A000F1E04F1A51084114510471F7E5C0843643
:1009B00011F0893639F5F80127FF07C06081718190
:1009C000828193810C5F1F4F08C0608171818827ED
:1009D00077FD8095982F0E5F1F4F2F76722E97FF11
:1009E00009C090958095709561957F4F8F4F9F4F6F
:1009F0002068722E2AE030E0A4010E94E605A82EAD
:100A0000A81844C0853729F42F7EB22E2AE030E0A2
:100A100025C0F22FF97FBF2E8F36C1F018F488352C
:100A200079F0B4C0803719F0883721F0AFC02F2F8C
:100A30002061B22EB4FE0DC08B2D8460B82E09C08B
:100A400024FF0AC09F2F9660B92E06C028E030E030
:100A500005C020E130E002C020E132E0F801B7FE3D
:100A600007C060817181828193810C5F1F4F06C036
:100A70006081718180E090E00E5F1F4FA4010E94B1
:100A8000E605A82EA818FB2DFF777F2E76FE0BC05B
:100A9000372D3E7FA51450F474FE0AC072FC08C0C6
:100AA000372D3E7E05C0BA2C372D03C0BA2C01C0AD
:100AB000B52C34FF0DC0FE01EA0DF11D808180339D
:100AC00011F4397E09C032FF06C0B394B39404C058
:100AD000832F867809F0B39433FD13C030FF06C02E
:100AE0005A2CB31418F4530C5B18B32CB31468F4D9
:100AF000B70180E290E03C870E94B003B3943C854C
:100B0000F5CFB31410F43B1801C0312C34FF12C0E0
:100B1000B70180E390E03C870E94B0033C8532FF40
:100B200017C031FD03C088E790E002C088E590E07F
:100B3000B7010CC0832F867859F031FF02C08BE2D9
:100B400001C080E237FD8DE2B70190E00E94B00362
:100B5000A51438F4B70180E390E00E94B0035A94E2
:100B6000F7CFAA94F401EA0DF11D8081B70190E05E
:100B70000E94B003A110F5CF332009F451CEB70184
:100B800080E290E00E94B0033A94F6CFF7018681AC
:100B9000978102C08FEF9FEF2C96E2E10C946006E4
:100BA000FC010590615070400110D8F78095909538
:100BB0008E0F9F1F0895FC0161507040019001103D
:100BC000D8F7809590958E0F9F1F0895FA01AA2758
:100BD000283051F1203181F1E8946F936E7F6E5F80
:100BE0007F4F8F4F9F4FAF4FB1E03ED0B4E03CD02E
:100BF000670F781F891F9A1FA11D680F791F8A1F11
:100C0000911DA11D6A0F711D811D911DA11D20D077
:100C100009F468943F912AE0269F11243019305D31
:100C20003193DEF6CF010895462F4770405D419322
:100C3000B3E00FD0C9F7F6CF462F4F70405D4A336F
:100C400018F0495D31FD4052419302D0A9F7EACF37
:100C5000B4E0A6959795879577956795BA95C9F766
:100C600000976105710508959B01AC010A2E069459
:100C70005795479537952795BA95C9F7620F731F12
:100C8000841F951FA01D08952F923F924F925F924F
:100C90006F927F928F929F92AF92BF92CF92DF928C
:100CA000EF92FF920F931F93CF93DF93CDB7DEB7F1
:100CB000CA1BDB0B0FB6F894DEBF0FBECDBF099485
:100CC0002A88398848885F846E847D848C849B84DC
:100CD000AA84B984C884DF80EE80FD800C811B81EA
:100CE000AA81B981CE0FD11D0FB6F894DEBF0FBE19
:0A0CF000CDBFED010895F894FFCF89
:100CFA000000000100000000000085000000000064
:100D0A0000020000000075000000000048696768E2
:100D1A0065737420436F6E647563746F723A20282A
:100D2A0025692C202569292000207C202564206D36
:0E0D3A004C2000207C2025642056200A00005A
:00000001FF
