:100000000C9434000C9451000C9451000C94510049
:100010000C9451000C9451000C9451000C9451001C
:100020000C9451000C9451000C9451000C9451000C
:100030000C9451000C9451000C9451000C945100FC
:100040000C9451000C9451000C9451000C945100EC
:100050000C9451000C9451000C9451000C945100DC
:100060000C9451000C94510011241FBECFEFD8E026
:10007000DEBFCDBF11E0A0E0B1E0E8E8FCE002C0E7
:1000800005900D92A838B107D9F711E0A8E8B1E0C2
:1000900001C01D92AE38B107E1F70E94AF010C9488
:1000A00042060C940000CF93C82F8A3019F48DE0DB
:1000B0000E9453008091C00085FFFCCFC093C60012
:1000C000CF9108958091C00087FFFCCF8091C6003A
:1000D00008951092C50087E68093C400E0ECF0E03C
:1000E00080818D7F808386E08093C20088E1809349
:1000F000C100E8E8F1E08EE091E09383828380E044
:1001000091E0918380830895EF92FF920F931F9364
:10011000CF93DF9300D0CDB7DEB7181619060CF0D9
:1001200054C07C0110E41F9380E28F931F921F92B2
:100130008CE191E09F938F930E9477031F938BE450
:100140008F9383E38F938F938CE291E09F938F93B0
:100150000E947703B70161507109882777FD809568
:10016000982F0E94880223E333E34BE450E40E947B
:100170001403182F092F9F938F937F936F938DE311
:1001800091E09F938F9369837A830E94770320E0A5
:1001900030E040E250E469817A81F8018F2F9E2F90
:1001A0000E9422028B01F82EE92E9F938F937F935A
:1001B0006F9389E491E09F938F930E9477030FB62A
:1001C000F894DEBF0FBECDBF04C000E010E0F12CFC
:1001D000E12C9701602F712F832F9E2D0F900F9090
:1001E000DF91CF911F910F91FF90EF900895809133
:1001F0007A00806480937A0080917A0084FFFCCF3B
:10020000609178007091790080E090E00E94860211
:1002100021E830E840E85BE30E9414030895FB0105
:1002200031962FEF30E0D90102C0AA0FBB1FEA952B
:10023000E2F7FD01E823F923A8E0B0E0A61BB70B25
:1002400002C035952795AA95E2F72E2B3F2B8223E6
:1002500093234170552702C0440F551F6A95E2F75A
:10026000842B952B0895CF93DF93EC018BB1AE01D6
:100270004170552762E070E090E00E940F014C2F22
:100280004695417050E063E070E00E940F01C2FBB0
:10029000442740F950E064E070E00E940F018BB900
:1002A000DF91CF910895CF93DF93EC0188B1AE0138
:1002B0004170552760E070E090E00E940F014C2FE4
:1002C0004695417050E061E070E00E940F01C2FB72
:1002D000442740F950E062E070E00E940F01C3FB48
:1002E000442740F950E063E070E00E940F0188B9B4
:1002F00085B14C2F4295417050E062E070E090E093
:100300000E940F01C5FB442740F950E063E070E014
:100310000E940F01C6FB442740F950E064E070E002
:100320000E940F01C7FB442740F950E065E070E0F0
:100330000E940F0185B9DF91CF910895ECE7F0E0BD
:1003400080E48083808185608083EAE7F0E080EE4E
:10035000808380818760808310927B000895CF9393
:10036000DF9300D0CDB7DEB70E9469000E949E01E6
:1003700085E084BD8FEF84B99FEE97B98AB986E591
:10038000C82E81E0D82E93E7A92E91E0B92E2DE753
:10039000822E21E0922E00E010E0712C612C512C75
:1003A000412CC8010E943301212C312CF12CE12C6D
:1003B0002114310431F40E94F700762E672E582E56
:1003C000492EC1010E9453018FEF90E00197F1F790
:1003D000C10101961C013B9B02C0F82EE32C99EA57
:1003E0002916310429F78F2D9E2D0E948400382E66
:1003F000292E1F930F93EF92FF92DF92CF92698382
:100400007A830E9477032F923F927A817F9369814A
:100410006F93BF92AF920E9477034F925F926F9259
:100420007F929F928F920E9477030F5F1F4F0FB6AC
:10043000F894DEBF0FBECDBF0730110509F0B1CF74
:10044000AACF5058BB27AA270ED0B4C0A5D030F0F1
:10045000AAD020F031F49F3F11F41EF49AC00EF49C
:10046000E095E7FB90C0E92FB6D080F3BA1762079A
:1004700073078407950718F071F49EF5CEC00EF44B
:10048000E0950B2EBA2FA02D0B01B90190010C01A4
:10049000CA01A0011124FF27591B99F0593F50F4BC
:1004A000503E68F11A16F040A22F232F342F442714
:1004B000585FF3CF469537952795A795F04053950C
:1004C000C9F77EF41F16BA0B620B730B840BBAF0DC
:1004D0009150A1F0FF0FBB1F661F771F881FC2F747
:1004E0000EC0BA0F621F731F841F48F4879577955B
:1004F0006795B795F7959E3F08F0B3CF9395880F12
:1005000008F09927EE0F979587950895E89409C00C
:1005100097FB3EF490958095709561957F4F8F4F36
:100520009F4F9923A9F0F92F96E9BB279395F6954C
:10053000879577956795B795F111F8CFFAF4BB0FCA
:1005400011F460FF1BC06F5F7F4F8F4F9F4F16C02E
:10055000882311F096E911C0772321F09EE8872FB8
:10056000762F05C0662371F096E8862F70E060E074
:100570002AF09A95660F771F881FDAF7880F9695ED
:10058000879597F9089597F99F6780E870E060E094
:1005900008959FEF80EC089500240A94161617061C
:1005A00018060906089500240A9412161306140664
:1005B00005060895092E0394000C11F4882352F0C7
:1005C000BB0F40F4BF2B11F460FF04C06F5F7F4F7F
:1005D0008F4F9F4F089557FD9058440F551F59F066
:1005E0005F3F71F04795880F97FB991F61F09F3F20
:1005F00079F087950895121613061406551FF2CF49
:100600004695F1DF08C0161617061806991FF1CF98
:1006100086957105610508940895E894BB276627BF
:100620007727CB0197F908950BD0C4CFB5DF28F019
:10063000BADF18F0952309F0A6CFABCF1124EECF87
:10064000CADFA0F3959FD1F3950F50E0551F629F2D
:10065000F001729FBB27F00DB11D639FAA27F00D1B
:10066000B11DAA1F649F6627B00DA11D661F829F42
:100670002227B00DA11D621F739FB00DA11D621F27
:10068000839FA00D611D221F749F3327A00D611D44
:10069000231F849F600D211D822F762F6A2F112426
:1006A0009F5750408AF0E1F088234AF0EE0FFF1F79
:1006B000BB1F661F771F881F91505040A9F79E3FB0
:1006C000510570F060CFAACF5F3FECF3983EDCF3AA
:1006D000869577956795B795F795E7959F5FC1F7ED
:1006E000FE2B880F911D9695879597F90895A0E0A8
:1006F000B0E0EDE7F3E00C941B06AE014B5F5F4FFB
:10070000FA0161917191AF0180918A0190918B0101
:100710000E948D03E2E00C943706ACE0B0E0E3E920
:10072000F3E00C940B067C016B018A01FC0117823B
:100730001682838181FFBDC1CE0101964C01F70174
:100740009381F60193FD859193FF81916F01882339
:1007500009F4ABC1853239F493FD859193FF819102
:100760006F01853229F4B70190E00E947505E7CF4B
:10077000512C312C20E02032A0F48B3269F030F47F
:10078000803259F0833269F420612CC08D3239F007
:10079000803339F4216026C02260246023C02860A1
:1007A00021C027FD27C030ED380F3A3078F426FFFE
:1007B00006C0FAE05F9E300D1124532E13C08AE06C
:1007C000389E300D1124332E20620CC08E3221F45D
:1007D00026FD6BC1206406C08C3611F4206802C06F
:1007E000883641F4F60193FD859193FF81916F0165
:1007F0008111C1CF982F9F7D9554933028F40C5FC1
:100800001F4FFFE3F9830DC0833631F0833771F05A
:10081000833509F05BC022C0F801808189830E5FB7
:100820001F4F44244394512C540115C03801F2E069
:100830006F0E711CF801A080B18026FF03C0652DEA
:1008400070E002C06FEF7FEFC5012C870E946A0540
:100850002C0183012C852F77222E17C03801F2E05E
:100860006F0E711CF801A080B18026FF03C0652DBA
:1008700070E002C06FEF7FEFC5012C870E945F051B
:100880002C012C852068222E830123FC1BC0832D84
:1008900090E048165906B0F4B70180E290E00E945B
:1008A00075053A94F4CFF50127FC859127FE8191D7
:1008B0005F01B70190E00E94750531103A94F1E0B4
:1008C0004F1A51084114510471F7E5C0843611F0F4
:1008D000893639F5F80127FF07C06081718182816F
:1008E00093810C5F1F4F08C060817181882777FD5D
:1008F0008095982F0E5F1F4F2F76722E97FF09C09D
:1009000090958095709561957F4F8F4F9F4F206890
:10091000722E2AE030E0A4010E94AD05A82EA8188E
:1009200044C0853729F42F7EB22E2AE030E025C05E
:10093000F22FF97FBF2E8F36C1F018F4883579F089
:10094000B4C0803719F0883721F0AFC02F2F206155
:10095000B22EB4FE0DC08B2D8460B82E09C024FFCA
:100960000AC09F2F9660B92E06C028E030E005C06F
:1009700020E130E002C020E132E0F801B7FE07C01C
:1009800060817181828193810C5F1F4F06C06081FD
:10099000718180E090E00E5F1F4FA4010E94AD05C1
:1009A000A82EA818FB2DFF777F2E76FE0BC0372DC3
:1009B0003E7FA51450F474FE0AC072FC08C0372DA7
:1009C0003E7E05C0BA2C372D03C0BA2C01C0B52C11
:1009D00034FF0DC0FE01EA0DF11D8081803311F45A
:1009E000397E09C032FF06C0B394B39404C0832F8C
:1009F000867809F0B39433FD13C030FF06C05A2C3B
:100A0000B31418F4530C5B18B32CB31468F4B70187
:100A100080E290E03C870E947505B3943C85F5CF59
:100A2000B31410F43B1801C0312C34FF12C0B701CD
:100A300080E390E03C870E9475053C8532FF17C03B
:100A400031FD03C088E790E002C088E590E0B7017F
:100A50000CC0832F867859F031FF02C08BE201C0B1
:100A600080E237FD8DE2B70190E00E947505A51484
:100A700038F4B70180E390E00E9475055A94F7CFEF
:100A8000AA94F401EA0DF11D8081B70190E00E9463
:100A90007505A110F5CF332009F451CEB70180E2DE
:100AA00090E00E9475053A94F6CFF7018681978110
:100AB00002C08FEF9FEF2C96E2E10C942706FC0119
:100AC0000590615070400110D8F7809590958E0F79
:100AD0009F1F0895FC016150704001900110D8F7EC
:100AE000809590958E0F9F1F08950F931F93CF931E
:100AF000DF93FB01238121FD03C08FEF9FEF28C00F
:100B000022FF16C046815781248135814217530741
:100B100044F4A081B1819D012F5F3F4F3183208339
:100B20008C93268137812F5F3F4F3783268310C0F8
:100B3000EB01092F182F0084F185E02D0995892BF1
:100B4000E1F68E819F8101969F838E83812F902F66
:100B5000DF91CF911F910F910895FA01AA272830B4
:100B600051F1203181F1E8946F936E7F6E5F7F4F7A
:100B70008F4F9F4FAF4FB1E03ED0B4E03CD0670FF6
:100B8000781F891F9A1FA11D680F791F8A1F911D49
:100B9000A11D6A0F711D811D911DA11D20D009F499
:100BA00068943F912AE0269F11243019305D3193DB
:100BB000DEF6CF010895462F4770405D4193B3E0C4
:100BC0000FD0C9F7F6CF462F4F70405D4A3318F06B
:100BD000495D31FD4052419302D0A9F7EACFB4E01C
:100BE000A6959795879577956795BA95C9F70097D4
:100BF0006105710508959B01AC010A2E0694579575
:100C0000479537952795BA95C9F7620F731F841FCB
:100C1000951FA01D08952F923F924F925F926F9261
:100C20007F928F929F92AF92BF92CF92DF92EF927C
:100C3000FF920F931F93CF93DF93CDB7DEB7CA1BFD
:100C4000DB0B0FB6F894DEBF0FBECDBF09942A8828
:100C5000398848885F846E847D848C849B84AA84D0
:100C6000B984C884DF80EE80FD800C811B81AA815D
:100C7000B981CE0FD11D0FB6F894DEBF0FBECDBF28
:080C8000ED010895F894FFCF87
:100C880000000001000000000000620000000000F9
:100C9800000200000000530000000000616374754A
:100CA8006174696F6E3A202566200A00756E697452
:100CB800566F6C756D653A202566200A0066697264
:100CC80073743A202564200A007365636F6E643A72
:100CD800202575200A004869676865737420436F8A
:100CE8006E647563746F723A202825692C20256913
:100CF800292000207C202575206D4C2000207C2098
:080D080025752056200A0000A9
:00000001FF
